:020000040800F2
:10000000781F0020E9020008F1020008F30200084E
:10001000F5020008F7020008F902000800000000DD
:10002000000000000000000000000000290200089D
:10003000FD0200080000000085020008F504000829
:100040000303000803030008030300080303000878
:100050000303000803030008A503000803030008C6
:100060000303000803030008030300080303000858
:100070000303000803030008030300080303000848
:100080000303000803030008030300080303000838
:100090000303000803030008030300080303000828
:1000A0000303000803030008030300080303000818
:1000B0000303000803030008030300080303000808
:1000C00003030008030300080303000803030008F8
:1000D0000303000803030008D9060008030300080F
:1000E00003030008030300080303000803030008D8
:1000F00003030008030300080303000803030008C8
:1001000003030008030300080303000803030008B7
:1001100003030008030300080303000803030008A7
:100120000303000803030008030300080303000897
:100130000303000803030008030300080303000887
:100140000303000803030008030300080303000877
:100150000303000803030008030300080303000867
:100160000303000803030008030300080303000857
:100170000303000803030008030300080000000055
:10018000030300080303000800F002F800F03CF845
:100190000AA090E8000C82448344AAF10107DA45E2
:1001A00001D100F031F8AFF2090EBAE80F0013F0F8
:1001B000010F18BFFB1A43F001031847301300006A
:1001C00050130000103A24BF78C878C1FAD85207FB
:1001D00024BF30C830C144BF04680C6070470000C1
:1001E0000023002400250026103A28BF78C1FBD840
:1001F000520728BF30C148BF0B6070471FB501F0E0
:100200006BF91FBD10B510BD00F091F81146FFF756
:10021000F5FF00F08BFC00F0AFF803B4FFF7F2FF3E
:1002200003BC00F0B7F800002C4B19680868B0E870
:10023000F04F80F30988BFF36F8F4FF0000080F319
:10024000118870470000000008480068006880F3CB
:1002500008884FF0000080F3148862B661B6BFF3DF
:100260004F8FBFF36F8F00DF00BF00BF08ED00E0CE
:10027000DFF80C00016841F470010160704700BFB5
:1002800088ED00E0EFF30980BFF36F8F134B1A681E
:100290001EF0100F08BF20ED108A20E9F04F10600B
:1002A00009B44FF0BF0080F31188BFF34F8FBFF345
:1002B0006F8F00F081FF4FF0000080F3118809BCC0
:1002C00019680868B0E8F04F1EF0100F08BFB0ECD6
:1002D000108A80F30988BFF36F8F704710000020E9
:1002E000EFF3058070470000094880470948004740
:1002F000FEE7FEE7FEE7FEE7FEE7FEE7FEE7FEE7D6
:10030000FEE7FEE704480549054A064B7047000032
:10031000290500088901000878190020781F0020AD
:10032000781B0020781B0020704770477047754687
:1003300000F02CF8AE4605006946534620F0070051
:10034000854618B020B5FFF7DDFFBDE820404FF02F
:1003500000064FF000074FF000084FF0000B21F0AF
:100360000701AC46ACE8C009ACE8C009ACE8C0097C
:10037000ACE8C0098D46704710B50446AFF3008065
:100380002046BDE81040FFF748BF00000048704716
:100390001419002001491820ABBEFEE72600020018
:1003A0007047000010B50448006840F001000249A1
:1003B000086000F0DBFD10BD143C01404B480068B4
:1003C00040F480304949086000BF4848006800F4A4
:1003D00000300028F9D04648006840F400704449D5
:1003E00008600846006840F48060086008460068BD
:1003F00040F0050008600846006840F4807008601E
:100400003A480830006820F0F000384908310860A8
:100410000846006808600846006820F4E05008605C
:100420000846006840F4A05008600846006820F4C0
:10043000604008600846006840F400400860081FFB
:10044000006840F48000091F0860081F006820F061
:100450008070091F0860081D006820F03F00091D1A
:1004600008600846006840F004000860084600681C
:1004700020F4403008600846006847F6C0718843A1
:100480001A49091D08600846006840F428500860B1
:100490000846006820F0706008600846006840F078
:1004A000A0600860081F006840F08070091F0860A5
:1004B00000BF0E48006800F000700028F9D00B481B
:1004C0000830006820F00300084908310860084639
:1004D000006840F00200086000BF0448083000686F
:1004E00000F00C000028F8D07047000000380240EF
:1004F000003C024010B500BFBF2080F31188BFF35D
:100500004F8FBFF36F8F00BF00F0E6FE18B14FF0C2
:1005100080500449086000BF002080F3118800BFAC
:1005200010BD000004ED00E01448006840F47000C5
:10053000124908601248006840F001001049086044
:1005400000200F49083108600D4800680D49084037
:100550000B4908600C48091D0860081F006820F45A
:100560008020091F0860002005490C3108604FF009
:1005700000600249803908607047000088ED00E0A3
:1005800000380240FFFFF6FE103000244F4800689C
:1005900040F008004D4908604C481030006840F0B9
:1005A00004004A49103108604948006840F0007072
:1005B000474908600846006840F000600860084647
:1005C000006840F0005008600846006840F00040B5
:1005D00008600846406A40F400313D484162406A84
:1005E00040F400113A484162406A40F000713848D6
:1005F0004162406A40F00051354841623548006828
:1006000040F07000334908600846006820F0100090
:1006100008600846006840F4E0400860084600684A
:1006200020F480500860081D006840F07000091D2B
:1006300008600846006820F010000860084600685E
:1006400040F4E04008600846006820F480500860EC
:1006500020481838006820F010001E49183908603A
:1006600001201C49091F08601A480830006840F042
:1006700001001849083108600846006840F0100081
:1006800008600846006840F480700860084600680A
:1006900040F4805008604FF47A700E4910310860C1
:1006A0004000091D086001200A491C310860091D2D
:1006B0000860091D0860091D0860064818380068B0
:1006C00040F0010003491839086070473038024093
:1006D000000C02401808004000B50848006800F00F
:1006E000200050B10548006820F020000349086050
:1006F000091D096888B200F003F800BD00440040FD
:1007000000BF0549096801F040010029F9D00249FC
:10071000091D0860704700000044004010B5024603
:10072000002305E019465C1CE3B2505CFFF7E8FFCC
:10073000D05C0028F6D110BD0EB59948806840F015
:1007400080409749886000BF9548006800F002002B
:100750000028F9D09248C06C9249088069469148B7
:10076000008800F023FC6846FFF7D8FF0D20FFF754
:10077000C7FF0A20FFF7C4FF8A480088002807DD6A
:100780008848008840F26631884201DC01200EBDB5
:100790008448008840F26631884206DD814800883E
:1007A000B0F5826F01DC6420F1E77E480088B0F587
:1007B000826F07DD7B48008840F2BA41884201DC45
:1007C000C820E4E77748008840F2BA41884208DD53
:1007D0007448008840F26451884202DC4FF49670FD
:1007E000D5E77048008840F26451884208DD6D48C2
:1007F000008840F20E61884202DC4FF4C870C6E700
:100800006848008840F20E61884207DD654800882C
:10081000B0F5D76F02DC4FF4FA70B8E76148008892
:10082000B0F5D76F08DD5F48008840F262718842FA
:1008300002DC4FF41670AAE75A48008840F2627151
:10084000884208DD5748008840F60C01884202DCE7
:100850004FF42F709BE75348008840F60C01884204
:1008600008DD5048008840F6B601884202DC4FF4AB
:1008700048708CE74B48008840F6B601884207DD97
:1008800048480088B0F5166F02DC4FF461707EE7CF
:1008900044480088B0F5166F08DD4248008840F6ED
:1008A0000A21884202DC4FF47A7070E73D480088E4
:1008B00040F60A21884208DD3A48008840F6B42113
:1008C000884202DC40F24C4061E73648008840F63E
:1008D000B421884208DD3348008840F65E31884202
:1008E00002DC4FF4966052E72E48008840F65E31F5
:1008F000884208DD2B48008840F60841884202DC27
:1009000040F2145043E72748008840F608418842E7
:1009100008DD2448008840F6B241884202DC4FF4EA
:10092000AF6034E71F48008840F6B241884208DDD6
:100930001C48008840F65C51884202DC40F2DC50E2
:1009400025E71848008840F65C51884208DD1548C4
:10095000008840F60661884202DC4FF4C86016E762
:100960001048008840F60661884207DD0D4800887F
:10097000B0F56B6F02DC40F2A46008E7094800881C
:10098000B0F56B6F08DD0748008840F65A71884261
:1009900002DC4FF4E160FAE64FF4FA60F7E600009B
:1009A00000200140000000202448006840F00100C1
:1009B000224908602248006840F00C002049086085
:1009C0001E481430006840F480701C4914310860DF
:1009D0001C48006840F440301B49C1F80403084635
:1009E000406820F0407048600846806820F00200AF
:1009F00088600846806820F4006088600846C06A05
:100A000020F47000C8620846806840F0706088601A
:100A10000846806840F0405088600846406B40F0CF
:100A2000010048630846006940F038000861084644
:100A3000806840F001008860704700003038024054
:100A400000000240042301400020014034480068B7
:100A500040F001003249086031481030006840F42D
:100A600000302F49103108602E48006A40F4706051
:100A70002C4908620846006A20F4006008620846B3
:100A8000006A40F4704008620846006A20F40040A2
:100A900008620846006820F03000086008460068D8
:100AA00040F0200008600846006820F0C0000860A0
:100AB0000846006840F0800008601B48006820F08D
:100AC0000C001949086041F21710091F0860081D41
:100AD000006840F00400091D08600846006840F006
:100AE000080008600846006840F4005008600846A6
:100AF000006840F00C000860262000F01F02012171
:100B000091404209920002F1E022C2F8001100BFB8
:100B10000548006840F02000034908607047000065
:100B200030380240000002400C4400401CB5FFF782
:100B300045FCFFF739FFFFF789FFFFF727FD00208E
:100B4000012103462022CDE9001004A1064800F04F
:100B500093FB00F0F7FA00BFFEE700004D4F544F43
:100B6000525F535045454400F9100008044908609D
:100B7000091D0860091D0860091D08607047000014
:100B8000340800402DE9F04105460E461648076836
:100B900016480068001D00F035FA681C38B936B1F7
:100BA00012480168091D124800F06AFA1AE07C191F
:100BB0000E4800684460BC4207D20C480168091D19
:100BC0000C48006800F042FA0CE008480168091D72
:100BD0000948006800F03AFA08480068844201D2E7
:100BE00006480460BDE8F0812400002010000020C9
:100BF00000190020180000201400002040000020F0
:100C000010B5044600F048FA22480068401C21490B
:100C100008602148006840B91F4804600846006821
:100C200001280DD100F0CCF80AE01C48006838B962
:100C300019480068C06AE16A884201D81648046011
:100C400017480068401C164908601649E06A0968A0
:100C5000884202D91349E06A0860E16A01EB810128
:100C6000114A02EB8100211D00F00AFA00F026FA79
:100C70000A48006868B108480068C06AE16A8842AA
:100C800007D24FF0805009490860BFF34F8FBFF380
:100C90006F8F10BD20000020100000202C000020CD
:100CA0003C000020280000204C18002004ED00E04B
:100CB00010B516E000F0F0F90C48C068C468201DBB
:100CC00000F0A0F90A480068401E09490860094878
:100CD0000068401E0749086000F0F0F9204600F067
:100CE0000BF8044800680028E4D110BDEC1800207F
:100CF000200000201C00002010B50446206B00F0EE
:100D0000EDF9204600F0EAF910BD000000BFFFF742
:100D1000CFFF064800680128F9D94FF080500449F8
:100D20000860BFF34F8FBFF36F8FF0E74C180020C0
:100D300004ED00E02DE9FF5F80460E469146DDE9B7
:100D40000E7A109CA9F10100216B01EB800B2BF0B6
:100D5000070B86B1002507E0715D04F134004155B1
:100D6000705D00B902E06D1C102DF5D300BF0021AD
:100D70004320015502E0002084F83400052F00D301
:100D80000427E762201D00F05EF904F1180000F06E
:100D90005AF92461C7F10500A06164620020606413
:100DA00084F8480041465846039A00F0C9F820608C
:100DB000BAF1000F01D0CAF80040BDE8FF9F000063
:100DC00010B5002407E004EB84010F4A02EB810018
:100DD00000F02CF9641C052CF5D30C4800F026F922
:100DE0000B4800F023F90B4800F020F90A4800F006
:100DF0001DF90A4800F01AF9044809490860044836
:100E00000849086010BD00004C180020B0180020F0
:100E1000C4180020D8180020EC1800200019002069
:100E200014000020180000200A490968096809B95F
:100E3000012100E0002121B14FF0FF31064A11608D
:100E400006E004490968C968C868034A4168116036
:100E500070470000140000204000002000BFBF20A9
:100E600080F31188BFF34F8FBFF36F8F00BF00BFB8
:100E7000FEE7000070B50446002504F0070020B12D
:100E800004F00700C0F10800044400F08DF9124896
:100E9000006820B9114820F007000F490860104889
:100EA0000068204441F2F871884210D20C48006872
:100EB00020440B490968884209D907480068084955
:100EC000096845180648006820440549086000F094
:100ED0008FFA284670BD0000080000205400002052
:100EE0000400002000B54FF4FA620BE007480260EE
:100EF000001D0260001D0260001D026000F04CF841
:100F0000501E82B2002AF1DC00BD0000340800400F
:100F100010B5FFF73BFB01220BE008480260001D03
:100F20000260001D0260001D026000F035F8501CD8
:100F300082B2B2F5FA6FF0DB10BD00003408004059
:100F4000001F4FF080730360001F21F00103036056
:100F5000001F054B036014380260001F6FF002038E
:100F600003602038704700005D0E000810B5094886
:100F7000006880F40060074908600846006800F4D3
:100F80000060086010B1FFF7C3FF01E0FFF7AAFFA0
:100F900010BD0000140C0240002001E0411C88B28A
:100FA00048F6B8018842F9DB70470000F0B5024608
:100FB0002AB930200870002048700846F0BD0B4662
:100FC000002400BF2646671CFCB20D4F37F8160000
:100FD000002503E06E1CF5B2161AB2B28242F9DAAD
:100FE00005F1300603F8016B052CEBDB00201870CF
:100FF00000E0491C08783028FBD00846DEE70000F6
:10100000E214000801460A69D1E901309860D1E98B
:10101000010358605068884201D188685060002000
:1010200008611068401E10601068704700F10801E8
:1010300041604FF0FF31816000F10801C160016142
:1010400000210160704700210161704710B5024620
:101050000B685C1C0CB9106907E002F1080000E0A5
:101060004068446824689C42FAD944684C604C68E3
:10107000A160886041600A611468641C146010BD3E
:1010800042684A6093688B60936859609160086118
:1010900003685B1C0360704700BFBF2080F31188AA
:1010A000BFF34F8FBFF36F8F00BF03480068401C32
:1010B00001490860704700000C00002006480068E5
:1010C000401E054908600846006820B9002080F3EA
:1010D000118800BF00BF70470C000020704700005F
:1010E00000204FF0E0210861886102484861072034
:1010F000086170473F90020008E0FFF71DFB0446BF
:10110000FFF734FD40F6B83000F002F8F5E70000D4
:1011100070B50446002544B100F046F80021204691
:10112000FFF730FD00F064F905463DB94FF08050FF
:1011300003490860BFF34F8FBFF36F8F70BD00008E
:1011400004ED00E01CB5114800210B462022CDE93A
:1011500000100FA1104800F08FF80446012C14D1A4
:1011600000BFBF2080F31188BFF34F8FBFF36F8F95
:1011700000BF4FF0FF3009490860012008490860AE
:1011800000200849086000F053F81CBD440000200E
:1011900049444C45000000000D0D000840000020AF
:1011A0002C0000202400002002480068401C014957
:1011B00008607047480000201848006818B10120F6
:1011C0001749086028E000201549086015480168A3
:1011D00000E0491E01EB8100134A52F8200008B9D3
:1011E000012000E000200028F3D101EB81020E4B2A
:1011F00003EB820042685268426000F108024368D3
:10120000934202D14268526842604268D268074BFA
:101210001A600448016000BF7047000048000020C9
:1012200034000020280000204C180020100000206E
:1012300010B50E48006840F47F000C49086008466D
:10124000006840F07F400860FFF74AFF002008492F
:101250000860FFF70DF80748006840F04040054976
:101260000860FEF7F1FF002010BD000020ED00E057
:101270000C00002034EF00E02DE9FF4F85B08046E0
:1012800089461746DDE912ABB800FFF7F3FD0646C5
:1012900056B14C20FFF7EEFD04460CB1266304E086
:1012A0003046FFF71BFF00E000247CB10020CDE9B1
:1012B00000ABCDE902403A4649464046089BFFF75D
:1012C00039FD2046FFF79CFC012501E04FF0FF357A
:1012D000284609B0BDE8F08F2DE9F04100273948D4
:1012E0000068002862D138480068451C364805600F
:1012F0008DB93648D0F80080354800683349086019
:101300003348C0F8008033480068401C3149086009
:10131000FFF78AFD00BF3048006885423AD300BF1E
:101320002A480068006808B9012000E0002020B1C8
:101330004FF0FF30284908602BE024480068C0685F
:10134000C4686668B54202D22348066021E0201DC9
:10135000FFF758FEA06A18B104F11800FFF752FE1B
:101360001E49E06A0968884202D91C49E06A08609F
:10137000E16A01EB81011A4A02EB8100211DFFF7AE
:101380007FFE1849E06A0968C96A8842C8D3012704
:10139000C6E700BF13480068C06A00EB8000104930
:1013A00051F82000012800D9012704E00E48006808
:1013B000401C0D4908600D48006800B101273846FF
:1013C000BDE8F08148000020240000201400002027
:1013D00018000020380000204000002028000020D5
:1013E0004C180020100000203000002034000020A5
:1013F00070B500240026FFF74FFE2E480068401EFF
:101400002C4908600846006800284ED12A48006828
:1014100000284AD023E02948C068C46804F11800B5
:10142000FFF7F0FD201DFFF7EDFD2549E06A096893
:10143000884202D92249E06A0860E16A01EB810131
:10144000204A02EB8100211DFFF71AFE1E49E06AC7
:101450000968C96A884202D301201C4908601748FC
:10146000006808B9012000E000200028D3D00CB1AA
:10147000FFF7DAFC1648056865B100BFFFF72CFFDF
:1014800010B10120114908606D1E002DF6D1002019
:101490000F4908600D48006838B1012630070D4932
:1014A0000860BFF34F8FBFF36F8FFFF707FE304623
:1014B00070BD00004800002020000020D818002047
:1014C000280000204C1800201000002034000020CC
:1014D0003000002004ED00E04FF04070E1EE100A13
:1014E00070471027E80364000A0001000C1500088B
:1014F000000000204C000000C4010008581500083E
:101500004C0000202C1F0000E0010008000000003B
:101510000000000000000000AAAAAAAA0000000023
:1015200000000000000000000000000000000000BB
:1015300000000000000000000000000000000000AB
:10154000000000000000000000000000000000009B
:08155000000000000000000093
:04000005080002E904
:00000001FF
