:020000040800F2
:1000000078070020E9020008F1020008F302000866
:10001000F5020008F7020008F902000800000000DD
:10002000000000000000000000000000290200089D
:10003000FD02000800000000850200081906000803
:100040000303000803030008030300080303000878
:100050000303000803030008A503000803030008C6
:100060000303000803030008BD030008030300089E
:100070000303000803030008030300080303000848
:100080000303000803030008030300080303000838
:100090000303000803030008030300080303000828
:1000A0000303000803030008030300080303000818
:1000B0000303000803030008030300080303000808
:1000C00003030008030300080303000803030008F8
:1000D00003030008030300080303000811080008D5
:1000E00003030008030300080303000803030008D8
:1000F00003030008030300080303000803030008C8
:1001000003030008030300080303000803030008B7
:100110000303000803030008B106000803030008F6
:100120000303000803030008030300080303000897
:100130000303000803030008030300080303000887
:100140000303000803030008030300080303000877
:100150000303000803030008030300080303000867
:100160000303000803030008030300080303000857
:100170000303000803030008030300080000000055
:10018000030300080303000800F002F800F03CF845
:100190000AA090E8000C82448344AAF10107DA45E2
:1001A00001D100F031F8AFF2090EBAE80F0013F0F8
:1001B000010F18BFFB1A43F001031847EC0D0000B4
:1001C0000C0E0000103A24BF78C878C1FAD8520744
:1001D00024BF30C830C144BF04680C6070470000C1
:1001E0000023002400250026103A28BF78C1FBD840
:1001F000520728BF30C148BF0B6070471FB500F0E1
:10020000C9FE1FBD10B510BD00F091F81146FFF7F3
:10021000F5FF00F033FC00F0AFF803B4FFF7F2FF96
:1002200003BC00F0B7F800002C4B19680868B0E870
:10023000F04F80F30988BFF36F8F4FF0000080F319
:10024000118870470000000008480068006880F3CB
:1002500008884FF0000080F3148862B661B6BFF3DF
:100260004F8FBFF36F8F00DF00BF00BF08ED00E0CE
:10027000DFF80C00016841F470010160704700BFB5
:1002800088ED00E0EFF30980BFF36F8F134B1A681E
:100290001EF0100F08BF20ED108A20E9F04F10600B
:1002A00009B44FF0BF0080F31188BFF34F8FBFF345
:1002B0006F8F00F033FD4FF0000080F3118809BC10
:1002C00019680868B0E8F04F1EF0100F08BFB0ECD6
:1002D000108A80F30988BFF36F8F704714000020E5
:1002E000EFF3058070470000094880470948004740
:1002F000FEE7FEE7FEE7FEE7FEE7FEE7FEE7FEE7D6
:10030000FEE7FEE704480549054A064B7047000032
:100310004D060008890100087801002078070020B8
:1003200078030020780300207047704770477546B7
:1003300000F02CF8AE4605006946534620F0070051
:10034000854618B020B5FFF7DDFFBDE820404FF02F
:1003500000064FF000074FF000084FF0000B21F0AF
:100360000701AC46ACE8C009ACE8C009ACE8C0097C
:10037000ACE8C0098D46704710B50446AFF3008065
:100380002046BDE81040FFF748BF00000048704716
:100390001801002001491820ABBEFEE7260002002C
:1003A0007047000010B50448006840F001000249A1
:1003B000086000F04FFB10BD143C01400948006884
:1003C00040F01000074908600748006840F48010BA
:1003D000054908600548006840F0010003490860CD
:1003E00070470000143C0140180802400010004013
:1003F00010B54FF4165000F03FFAF02000F0FAF973
:1004000000BF0A48006800F040000028F9D0074803
:10041000001D0068C4B24FF4E13000F02DFAF02C5A
:1004200001D0012010BD0320FCE700000044004083
:100430002DE9F04780460C4615461E46DDE9089733
:10044000B8F1010F05D1FFF7D3FF032801D1BDE8B3
:10045000F0871AE020780F4900F020F8641C681E2D
:10046000C5B200F04DFA67B9B9F1000F09DD0A48CD
:1004700000F025F83070761CA9F1010000F0FF09AA
:1004800003E0FF2F01D0781EC7B2002DE2DC01206F
:10049000DDE70000000000200800002000220BE043
:1004A00000F0010313B1FF230B7001E000230B7078
:1004B000491C4010531CDAB2082AF1DB7047014690
:1004C0000020002208E040100B78FF2B01D140F003
:1004D0008000491C531CDAB2082AF4DB7047000084
:1004E0004B48006840F480304949086000BF4848E4
:1004F000006800F400300028F9D04648006840F455
:100500000070444908600846006840F48060086054
:100510000846006840F0050008600846006840F49E
:10052000807008603A480830006820F0F0003849D0
:10053000083108600846006808600846006820F432
:10054000E05008600846006840F4A0500860084683
:10055000006820F4604008600846006840F40040ED
:100560000860081F006840F48000091F0860081F29
:10057000006820F08070091F0860081D006820F0E6
:100580003F00091D08600846006840F0040008604C
:100590000846006820F4403008600846006847F6C6
:1005A000C07188431A49091D08600846006840F474
:1005B000285008600846006820F07060086008460F
:1005C000006840F0A0600860081F006840F080707C
:1005D000091F086000BF0E48006800F00070002886
:1005E000F9D00B480830006820F0030008490831B2
:1005F00008600846006840F00200086000BF044838
:100600000830006800F00C000028F8D070470000A7
:1006100000380240003C024010B500BFBF2080F30C
:100620001188BFF34F8FBFF36F8F00BF00F0B2FB95
:1006300018B14FF080500449086000BF002080F3DB
:10064000118800BF10BD000004ED00E014480068F0
:1006500040F47000124908601248006840F0010040
:100660001049086000200F49083108600D480068F3
:100670000D4908400B4908600C48091D0860081F17
:10068000006820F48020091F0860002005490C3113
:1006900008604FF000600249803908607047000030
:1006A00088ED00E000380240FFFFF6FE1030002425
:1006B0000648006920F00100044908610448006808
:1006C00040F0100002490860704700000010004030
:1006D000180802401D48006800F40010B0F5001F23
:1006E00005D01A48006840F40010184908601848FE
:1006F000006820F0010016498839C1F888001548C3
:10070000134908310860144811498839C1F8940028
:100710000846D0F8880040F00060C1F8880008461C
:10072000D0F8880020F0C000C1F888000846D0F852
:10073000880040F48060C1F88800064810300068E6
:1007400040F04000034910310860704730380240E3
:1007500088600240044400400800002021480068EE
:1007600000F40010B0F5001F05D01E48006840F4EA
:1007700000101C4908601C48006820F001001A495C
:10078000A039C1F8A0001948174908310860184875
:100790001549A039C1F8AC000846D0F8A00040F0D7
:1007A0000060C1F8A0000846D0F8A00040F040006A
:1007B000C1F8A0000846D0F8A00040F48060C1F85D
:1007C000A0000846D0F8A00040F01000C1F8A0003A
:1007D00006481030006840F080000449103108607D
:1007E0007047000030380240A060024004440040DE
:1007F0000000002000BF0549096801F04001002900
:10080000F9D00249091D086070470000004400400B
:100810000348006820F0200001490860704700008C
:100820000C48004000BF0549096801F0400100295B
:10083000F9D00249091D08607047000000480040D7
:1008400000BF0549096801F040010029F9D00249BB
:10085000091D0860704700000048004010B50246BE
:10086000002305E019465C1CE3B2505CFFF7DAFF99
:10087000D05C0028F6D110BD0E49096821F00801AE
:100880000C4A11601146096821F0040111600A49FF
:1008900001EB5001B1FBF0F1121F1160111D09684D
:1008A00041F00801121D11601146096841F0040170
:1008B000116070470C44004080DE80020F490860E0
:1008C00000210E4A083A11600C492C39096841F0A0
:1008D00001010A4A2C3A116000BF08491C39096815
:1008E00001F001010029F8D004491C39096821F000
:1008F0000101024A1C3A1160704700002C140040AC
:100900000820284908602749A439C1F88C002648E6
:10091000006820F040002449086023481430006833
:1009200020F040002049143108600846006840F07B
:10093000400008601B48A438D0F8880040F001004F
:100940001849A439C1F888000846D0F8A00040F042
:100950000100C1F8A00000BF1248A4384068134944
:1009600008408842F8D10F481C38006840F0010068
:100970000C49A439C1F888000846D0F8A00040F01E
:100980000100C1F8A0000846C068084908430549AD
:10099000A439C86000BF0448006800F04000002887
:1009A000F9D07047A46002400044004000082000D5
:1009B0002548006840F001002349086022481030B3
:1009C000006840F400302049103108601F48006A78
:1009D00040F470601D4908620846006A20F4006017
:1009E00008620846006840F0300008600846006869
:1009F00020F0100008601648006820F00800144934
:100A000008600846006820F00400086010480830BC
:100A1000006840F008000E490831086040F68C007C
:100A20000B49091F0860081D006840F00800091DF7
:100A300008600846006840F0040008600846006846
:100A400040F4005008607047303802400000024017
:100A50000C44004010B54B240BE00748C4624069C9
:100A600040F00100044948616420FFF727FF601E41
:100A7000C4B2322CF1DC10BD00100040FFF730FD95
:100A8000FFF796FFFFF76AFEFFF724FE01E000F094
:100A900001F8FCE71FB500200390FF2000210B4662
:100AA0000222CDE9001017A10120FFF7C1FC4FF48D
:100AB0007A7000F011F90220009003AB042212A119
:100AC00001900120FFF7B4FC00200290BDF90C005A
:100AD000C11700EB1171C1F3071402A9204600F001
:100AE00073F80BA0FFF7BAFE02A8FFF7B7FEFF20CE
:100AF000FFF7A6FEFF20FFF7A3FEFF20FFF7A0FEF3
:100B00001FBD0000CC440000CCBEFFFF0000000071
:100B10006E302E76616C3D002DE9F04105460E46A3
:100B20001648076816480068001D00F079F8681C30
:100B300038B936B112480168091D124800F09EF814
:100B40001AE07C190E4800684460BC4207D20C4889
:100B50000168091D0C48006800F076F80CE00848B0
:100B60000168091D0948006800F06EF8084800682F
:100B7000844201D206480460BDE8F08128000020CC
:100B800014000020040100201C0000201800002098
:100B9000440000200A490968096809B9012100E0F8
:100BA000002121B14FF0FF31064A116006E00449EF
:100BB0000968C968C868034A416811607047000045
:100BC0001800002044000020F0B502462AB9302069
:100BD0000870002048700846F0BD0B46002400BF96
:100BE0002646671CFCB20D4F37F81600002503E0BF
:100BF0006E1CF5B2161AB2B28242F9DA05F130066D
:100C000003F8016B052CEBDB0020187000E0491C99
:100C100008783028FBD00846DEE700009E0F000869
:100C200001460A69D1E901309860D1E901035860B1
:100C30005068884201D188685060002008611068BF
:100C4000401E10601068704710B502460B685C1CAF
:100C50000CB9106907E002F1080000E04068446840
:100C600024689C42FAD944684C604C68A160886052
:100C700041600A611468641C146010BD42684A60D7
:100C800093688B60936859609160086103685B1C8E
:100C90000360704700BFBF2080F31188BFF34F8F00
:100CA000BFF36F8F00BF03480068401C0149086014
:100CB000704700001000002006480068401E0549EB
:100CC00008600846006820B9002080F3118800BF42
:100CD00000BF70471000002070B50446002544B1E5
:100CE00000F014F800212046FFF716FF00F0DEF8B0
:100CF00005463DB94FF0805003490860BFF34F8F60
:100D0000BFF36F8F70BD000004ED00E00248006883
:100D1000401C0149086070474C00002018480068DA
:100D200018B101201749086028E000201549086023
:100D30001548016800E0491E01EB8100134A52F892
:100D4000200008B9012000E000200028F3D101EBC9
:100D500081020E4B03EB820042685268426000F150
:100D600008024368934202D1426852684260426876
:100D7000D268074B1A600448016000BF704700004A
:100D80004C000020380000202C00002050000020E3
:100D9000140000202DE9F0410027394800680028A0
:100DA00062D138480068451C364805608DB9364820
:100DB000D0F8008035480068334908603348C0F8EF
:100DC000008033480068401C31490860FFF7E2FEAC
:100DD00000BF3048006885423AD300BF2A48006807
:100DE000006808B9012000E0002020B14FF0FF307A
:100DF000284908602BE024480068C068C468666819
:100E0000B54202D22348066021E0201DFFF708FF0B
:100E1000A06A18B104F11800FFF702FF1E49E06A4A
:100E20000968884202D91C49E06A0860E16A01EB5E
:100E300081011A4A02EB8100211DFFF71FFF1849AB
:100E4000E06A0968C96A8842C8D30127C6E700BFBB
:100E500013480068C06A00EB8000104951F8200078
:100E6000012800D9012704E00E480068401C0D4904
:100E700008600D48006800B101273846BDE8F081E0
:100E80004C00002028000020180000201C0000203A
:100E90003C000020440000202C00002050000020D6
:100EA00014000020340000203800002070B5002419
:100EB0000026FFF7EFFE2E480068401E2C49086010
:100EC0000846006800284ED12A48006800284AD009
:100ED00023E02948C068C46804F11800FFF7A0FEA9
:100EE000201DFFF79DFE2549E06A0968884202D966
:100EF0002249E06A0860E16A01EB8101204A02EBC5
:100F00008100211DFFF7BAFE1E49E06A0968C96A1F
:100F1000884202D301201C4908601748006808B9BC
:100F2000012000E000200028D3D00CB1FFF732FEF2
:100F30001648056865B100BFFFF72CFF10B101200E
:100F4000114908606D1E002DF6D100200F49086080
:100F50000D48006838B1012630070D490860BFF31D
:100F60004F8FBFF36F8FFFF7A7FE304670BD0000B5
:100F70004C00002024000020DC0000202C00002079
:100F80005000002014000020380000203400002011
:100F900004ED00E04FF04070E1EE100A70471027BA
:100FA000E80364000A000100C80F000800000020E8
:100FB00050000000C4010008181000085000002074
:100FC00028070000E0010008000000000000000009
:100FD0000000000000000000AAAAAAAA0000000069
:100FE0000000000000000000000000000000000001
:100FF00000000000000000000000000000000000F1
:1010000000000000000000000000000000000000E0
:081010000000000000000000D8
:04000005080002E904
:00000001FF
